S01500004D6963726F7761766552544F532E737265631A
S11300000C942A000C9447000C9447000C9447006D
S11300100C9447000C9447000C9447000C94470040
S11300200C9447000C9447000C9447000C947C08F3
S11300300C9447000C9447000C9447000C94470020
S11300400C9447000C9447000C9447000C94470010
S11300500C94470011241FBECFE5D8E0DEBFCDBF0E
S113006011E0A0E6B0E0E8EFF3E102C005900D92E4
S1130070AC31B107D9F721E0ACE1B1E001C01D9288
S1130080AF36B207E1F70E9420060C94FA090C94EB
S11300900000CF92DF92EF92FF920F931F93CF93C2
S11300A0DF9304E610E0C0E6D0E00F2EF4E6CF2E96
S11300B0F0E0DF2EF02DF80161918F0141E084E042
S11300C00E9443067E0140E0699184E00E94430659
S11300D041E0F701608184E00E948407CC15DD05CE
S11300E051F7DF91CF911F910F91FF90EF90DF9027
S11300F0CF9008956F927F928F929F92AF92BF920A
S1130100CF92DF92EF92FF920F931F93CF93DF93DF
S11301100F2EF4E6EF2EF0E0FF2EF02D08E610E0AF
S1130120E701699141E084E00E94CB06C017D10742
S1130130C1F7C12CD12C4601570140E0F701608181
S113014084E00E94CB06C0E6D0E0612C712C8301D0
S1130150699184E00E944F0781110BC0000F111FA9
S1130160000F111F01591F4FF801E80DF91D80817F
S113017018C0FFEF6F1A7F0A84E06816710439F71C
S1130180EFEFEE1AFE0A41E0F501608184E00E947F
S1130190CB06FFEFCF1ADF0A84E0C816D10459F664
S11301A08FE3DF91CF911F910F91FF90EF90DF903C
S11301B0CF90BF90AF909F908F907F906F90089555
S11301C0EF92FF920F931F93CF93DF93E82E40E0BB
S11301D061E082E00E94CB0641E062E082E00E949E
S11301E0CB06C4E0D0E0F12C8701A7010C2E02C09D
S11301F0559547950A94E2F741706C2F82E00E946E
S1130200CB062196C830D10579F741E060E082E061
S11302100E94CB0662E070E080E090E00E94BE02A3
S113022040E060E082E00E94CB06C4E0E12CF12CC7
S1130230A8010E2C02C0559547950A94E2F7417027
S11302406C2F82E00E94CB068FEFE81AF80ACF5F8A
S1130250C83071F741E060E082E00E94CB0662E0C2
S113026070E080E090E00E94BE0240E060E082E046
S11302700E94CB06DF91CF911F910F91FF90EF90D9
S11302800895EF92FF920F931F93CF93DF93E82E7D
S113029040E061E082E00E94CB0640E062E082E060
S11302A00E94CB06C4E0D0E0F12C8701A7010C2EFC
S11302B002C0559547950A94E2F741706C2F82E08D
S11302C00E94CB062196C830D10579F741E060E061
S11302D082E00E94CB0662E070E080E090E00E9441
S11302E0BE0240E060E082E00E94CB06C4E0E12C64
S11302F0F12CA8010E2C02C0559547950A94E2F7FB
S113030041706C2F82E00E94CB068FEFE81AF80A46
S1130310CF5FC83071F741E060E082E00E94CB0615
S113032062E070E080E090E00E94BE0240E060E0A5
S113033082E00E94CB06DF91CF911F910F91FF9035
S1130340EF900895EF92FF920F931F93CF93DF9353
S113035041E062E082E00E94430641E061E082E025
S11303600E94430641E060E082E00E94430661E0AF
S113037082E00E94270662E370E080E090E00E9441
S1130380BE02809168008B7F88608093680082E25F
S11303900E944101809168000E94410161E070E087
S11303A080E090E00E94BE02809169000E944101B9
S11303B061E070E080E090E00E94BE0281E00E9473
S11303C0410162E070E080E090E00E94BE0286E0BD
S11303D00E94410162E070E080E090E00E94BE0271
S11303E080E40E944101CFE7D0E00F2EFFEBEF2E17
S11303F0F0E0FF2EF02D0AC089910E94E000C017A2
S1130400D107D1F7E801E016F10621F08E01085F6B
S11304101F4FF2CF80E80E944101DF91CF911F91DD
S11304200F91FF90EF900895813019F0823029F0F8
S1130430089580E80E944101089580EC0E944101E2
S113044008958A3020F4805D0E94E00008950E949F
S1130450E0000895BF92CF92DF92EF92FF920F9344
S11304601F93CF93DF93EC01611148C0C880D980FA
S1130470EA80FB80C114D104E104F10421F480E09A
S11304800E94210246C0D0E019E0C12FCD1B6C2F81
S11304908AE00E9403039B01AC01C701B6010E94DC
S11304A06C09232B242B252B29F1DA3090F56C2FA2
S11304B08AE00E9403039B01AC01C701B6010E94BC
S11304C06C09B62E072F182FD92F6C2F8AE00E94A3
S11304D003039B01AC01C701B6010E946C09822F82
S11304E00E942102C150CB2CD02EE12EFD2ECF3FF5
S11304F0F1F60FC0DF5FDA3041F60BC0613049F42A
S11305008881882331F021960E94210289918111EA
S1130510FBCFDF91CF911F910F91FF90EF90DF9070
S1130520CF90BF900895811106C0809169008D7F9E
S11305308093690005C0809169008260809369009E
S1130540809169000E9441010895811106C0809143
S113055069008E7F8093690005C080916900816085
S113056080936900809169000E944101089541E0EF
S11305700E94430608950E94CB0608958F929F928D
S1130580AF92BF92CF92DF92EF92FF920F939B01B3
S1130590AC0160EA76E881E090E00E945C0966566E
S11305A079408109910929EB35E749E757E00E9431
S11305B0990900E20E94C609822E932EA42EB52E1C
S11305C0B694A79497948794B694A7949794879491
S11305D081149104A104B10461F080E090E0DC0195
S11305E000000196A11DB11D88169906AA06BB0636
S11305F0B9F70F91FF90EF90DF90CF90BF90AF903D
S11306009F908F900895CF92DF92EF92FF92C82E21
S1130610F62F662391F0E0E061E070E080E090E086
S1130620D12CE12CF12C9B01AC01C701B6010E9435
S11306305C09EF5FFE13F7CF04C061E070E080E077
S113064090E0FF90EF90DF90CF90089580916C0040
S1130650813439F490912D0181E0892780932D0113
S1130660089580916C00823431F490912C0181E0E2
S1130670892780932C0108950E947A008F3319F002
S113068080936C0008958BE480936C0008958091AE
S11306902B01811125C081E00E94140261E0809148
S11306A06A0090916B000E942A0281E00E94140269
S11306B061E08FEB90E00E942A0282E00E94140223
S11306C061E080916A0090916B000E942A0282E0AE
S11306D00E94140260E086E291E00E942A020895DA
S11306E080912B01813021F50E94140261E08091F8
S11306F06A0090916B000E942A0281E00E94140219
S113070061E080ED90E00E942A0282E00E941402DF
S113071061E080916A0090916B000E942A0282E05D
S11307200E94140260E082E291E00E942A0208958D
S113073080912B018230E9F481E00E94140261E08F
S113074080916A0090916B000E942A0282E00E94CC
S1130750140261E080916A0090916B000E942A0269
S113076081E00E94140261E08FED90E00E942A0271
S1130770089580912B018330E9F481E00E941402F2
S113078061E080916A0090916B000E942A0282E0ED
S11307900E94140261E080916A0090916B000E94B3
S11307A02A0281E00E94140261E08AEE90E00E9435
S11307B02A02089580912B018430E1F481E00E94A3
S11307C0140261E080916A0090916B000E942A02F9
S11307D082E00E94140261E080916A0090916B00B3
S11307E00E942A0281E00E94140261E089EF90E0F5
S11307F00E942A020895CF92DF92EF92FF921F93F4
S1130800CF93DF93809121018F5F80932101909199
S11308102B01913009F054C090916C009234B1F4E2
S113082010922A0192E090932B0140912201509161
S11308302301609124017091250140932601509376
S11308402701609328017093290121C090916C00C5
S1130850933461F04091220150912301609124016D
S113086070912501452B462B472B89F410922601C4
S1130870109227011092280110922901109221014F
S11308801092200110922A0110922B010FC1853081
S113089009F00CC110922101809122019091230151
S11308A0A0912401B09125010197A109B109809378
S11308B0220190932301A0932401B0932501F6C053
S11308C080916C0080916C008A3008F04BC01092CB
S11308D0210110922B01609120016430E8F5E62F8C
S11308E0F0E080916C00E45EFE4F8083109226015C
S11308F0109227011092280110922901C0E0D0E043
S113090010E0611B8AE00E9403039B01AC01C090CC
S11309102601D0902701E0902801F0902901C45EBF
S1130920DE4FA881B0E00E948E09C60ED71EE81ED5
S1130930F91EC0922601D0922701E0922801F0927C
S113094029011F5FC12FD0E060912001862F90E024
S11309500196C817D907ACF2809120018F5F80936C
S1130960200192C080916C00833479F410922601A6
S1130970109227011092280110922901109221014E
S11309801092200110922B0191C080916C0084344C
S113099009F07AC0109221018091260190912701DB
S11309A0A0912801B0912901892B8A2B8B2BF1F07E
S11309B080912D0181111AC080912C01811116C0E2
S11309C08091260190912701A0912801B0912901DD
S11309D08093220190932301A0932401B0932501D5
S11309E081E080932A0180932B0160C080912601CD
S11309F090912701A0912801B0912901892B8A2B7C
S1130A008B2B71F080912D0181110AC080912C01F2
S1130A10813031F410922A0182E080932B0146C088
S1130A208091260190912701A0912801B09129017C
S1130A30892B8A2B8B2B71F080912D01813051F4FD
S1130A4080912C01811106C010922A0183E08093C9
S1130A502B012CC08091260190912701A09128019F
S1130A60B0912901892B8A2B8B2B01F180912D01C7
S1130A708130E1F480912C018130C1F410922A017B
S1130A8084E080932B0112C080912101823371F4A0
S1130A9010922B0110922601109227011092280126
S1130AA0109229011092210110922001DF91CF911F
S1130AB01F91FF90EF90DF90CF90089540912A010D
S1130AC050E060E070E081E090E00E94BB02409161
S1130AD02A0150E062E070E081E090E00E94BB02F5
S1130AE040912A0150E061E070E081E090E00E94D2
S1130AF0BB0240912C0150E063E070E081E090E0A3
S1130B000E94BB0240912D0150E064E070E081E05E
S1130B1090E00E94BB02089560E070E081E090E004
S1130B200E94B70261E070E081E090E00E94B702A9
S1130B3062E070E081E090E00E94B70263E070E060
S1130B4081E090E00E94B70264E070E081E090E010
S1130B500E94B7020E9449000E94A20180E00E9404
S1130B60930280E00E94A50261E08FEB90E00E9476
S1130B702A020E94CB0808958F929F92AF92BF924F
S1130B80CF92DF92EF92FF920F931F93812C912CBF
S1130B9054018394C12CD12C7601C39400E010E05D
S1130BA0980142E050E060E070E08CE393E00E9442
S1130BB0D50801E010E020E030E042E050E060E0E1
S1130BC070E086E293E00E94D508812C912C5401B8
S1130BD0689481F802E010E020E030E042E050E068
S1130BE060E070E08BEF93E00E94D5080F2EF3E0F5
S1130BF08F2E912CA12CB12CF02D03E010E020E0DD
S1130C0030E042E050E060E070E087E493E00E946E
S1130C10D50804E010E020E030E042E050E060E07D
S1130C2070E08EE595E00E94D5081F910F91FF902A
S1130C30EF90DF90CF90BF90AF909F908F900895EA
S1130C400E948C050E94BC050E94CE08FFCF613033
S1130C5009F46FEF823061F018F4813031F011C083
S1130C60833049F0843051F00CC06ABB80E00895B1
S1130C7067BB80E0089564BB80E0089561BB80E0B9
S1130C80089581E00895683008F07FC0423008F08C
S1130C907EC0823031F118F4813039F07AC083306B
S1130CA0E1F1843009F455C074C041110DC09AB308
S1130CB021E030E002C0220F331F6A95E2F7822F51
S1130CC0809589238ABB0AC02AB381E090E002C0E0
S1130CD0880F991F6A95E2F7822B8ABB8ABB80E052
S1130CE0089541110DC097B321E030E002C0220FF6
S1130CF0331F6A95E2F7822F8095892387BB0AC048
S1130D0027B381E090E002C0880F991F6A95E2F74B
S1130D10822B87BB87BB80E0089541110DC094B33B
S1130D2021E030E002C0220F331F6A95E2F7822FE0
S1130D308095892384BB0AC024B381E090E002C07B
S1130D40880F991F6A95E2F7822B84BB84BB80E0ED
S1130D50089541110DC091B321E030E002C0220F8B
S1130D60331F6A95E2F7822F8095892381BB0AC0DD
S1130D7021B381E090E002C0880F991F6A95E2F7E1
S1130D80822B81BB81BB80E0089582E0089583E0DB
S1130D90089581E00895683008F07BC0423008F07F
S1130DA07AC0823029F118F4813039F076C083306A
S1130DB0D1F1843009F452C070C041110DC02BB37D
S1130DC081E090E002C0880F991F6A95E2F7809550
S1130DD082238BBB80E008952BB381E090E002C0B6
S1130DE0880F991F6A95E2F7822B8BBB80E00895E8
S1130DF041110DC028B381E090E002C0880F991F13
S1130E006A95E2F78095822388BB80E0089528B331
S1130E1081E090E002C0880F991F6A95E2F7822B67
S1130E2088BB80E0089541110DC025B381E090E0B6
S1130E3002C0880F991F6A95E2F78095822385BBCB
S1130E4080E0089525B381E090E002C0880F991FE7
S1130E506A95E2F7822B85BB80E0089541110DC0AD
S1130E6022B381E090E002C0880F991F6A95E2F7EF
S1130E708095822382BB80E0089522B381E090E0D4
S1130E8002C0880F991F6A95E2F7822B82BB80E02B
S1130E90089582E0089583E0089581E0089568301C
S1130EA078F5823091F018F4813031F02BC0833022
S1130EB0A9F08430E1F026C089B390E002C0959592
S1130EC087956A95E2F78170089586B390E002C031
S1130ED0959587956A95E2F78170089583B390E0BC
S1130EE002C0959587956A95E2F78170089580B35D
S1130EF090E002C0959587956A95E2F78170089510
S1130F0083E0089582E00895423008F07BC06830A1
S1130F1008F07AC0823029F118F4813039F076C0B3
S1130F208330D1F1843009F452C070C041110DC036
S1130F302BB381E090E002C0880F991F6A95E2F715
S1130F40809582238BBB80E008952BB381E090E0F1
S1130F5002C0880F991F6A95E2F7822B8BBB80E051
S1130F60089541110DC028B381E090E002C0880FBC
S1130F70991F6A95E2F78095822388BB80E00895E3
S1130F8028B381E090E002C0880F991F6A95E2F7C8
S1130F90822B88BB80E0089541110DC025B381E008
S1130FA090E002C0880F991F6A95E2F7809582232A
S1130FB085BB80E0089525B381E090E002C0880FEE
S1130FC0991F6A95E2F7822B85BB80E00895411151
S1130FD00DC022B381E090E002C0880F991F6A958A
S1130FE0E2F78095822382BB80E0089522B381E0FA
S1130FF090E002C0880F991F6A95E2F7822B82BBAA
S113100080E0089583E0089582E0089581E00895E2
S11310108091330183BF08958091330128E030E04B
S113102030936E0020936D00807B82608093330147
S11310308FB780688FBF89B7816089BF8091330182
S11310408F7C8093330108958F929F92AF92BF92C9
S1131050CF92DF92EF92FF924B015C01A0916D0061
S1131060B0916E0020E432E44FE050E00E948E091B
S113107020E032E14AE750E00E946C09CC24D22EF1
S1131080E32EF42EA8EEB3E0A50194010E948E098C
S1131090A70196010E946C09209334013093350115
S11310A0409336015093370112BE611571058105D5
S11310B09105B9F061956093320162BF809134016A
S11310C090913501A0913601B09137010196A11D8F
S11310D0B11D8093340190933501A0933601B093F0
S11310E037010E940808FF90EF90DF90CF90BF90E7
S11310F0AF909F908F9008951F920F920FB60F920A
S113110011242F933F934F935F936F937F938F9308
S11311109F93AF93BF93EF93FF9380912E01909190
S11311202F01A0913001B09131010196A11DB11D93
S113113080932E0190932F01A0933001B09331013D
S1131140409134015091350160913601709137011D
S113115084179507A607B70769F40E941E09109221
S11311602E0110922F0110923001109231018091C2
S1131170320182BFFF91EF91BF91AF919F918F9107
S11311807F916F915F914F913F912F910F900FBE7F
S11311900F901F9018950E940C08089565E070E068
S11311A080E090E00E94240808954F925F926F922D
S11311B07F928F929F92AF92BF92CF920F931F9381
S11311C0CF93DF93CDB7DEB7ABE0A09FF001A19F33
S11311D0F00D1124E85CFE4F4280538064807580DA
S11311E0452846284728C9F405301105210531054D
S11311F0B0F4A09FF001A19FF00D1124E85CFE4F14
S11312004283538364837583918380838682978228
S1131210A086B186C28680E003C082E001C081E07E
S1131220DF91CF911F910F91CF90BF90AF909F907E
S11312308F907F906F905F904F900895EF92FF9200
S11312400F931F93CF93DF93C8E3D1E00F2EFFE6F4
S1131250EF2EF1E0FF2EF02D8A819B81AC81BD81C0
S1131260892B8A2B8B2BE9F08A858130D1F48E81EE
S11312709F81A885B9850197A109B1098E839F83B0
S1131280A887B987892B8A2B8B2B59F4E881F9819C
S113129009958A819B81AC81BD818E839F83A887B8
S11312A0B9872B96CE15DF05B9F6DF91CF911F9143
S11312B00F91FF90EF900895DB018F939F930E940D
S11312C08E09BF91AF91A29F800D911DA39F900D98
S11312D0B29F900D11240895A1E21A2EAA1BBB1BE4
S11312E0FD010DC0AA1FBB1FEE1FFF1FA217B307EE
S11312F0E407F50720F0A21BB30BE40BF50B661F04
S1131300771F881F991F1A9469F7609570958095C7
S113131090959B01AC01BD01CF0108950E94E209A3
S1131320A59F900DB49F900DA49F800D911D112435
S11313300895E894DF93CF93FC01DB010E94E20956
S11313407F936F93E9019A01AC01BF93AF933F93ED
S11313502F93DF010E94E20926F46C1B7D0B820BA4
S1131360930B9E01EB01FC010E94F109AF91BF9127
S11313702F913F910E94F109BE01CF01F9012F91F4
S11313803F91CF91DF91089597FB10F816940008D0
S11313900F93083098F00850232F342F452F562FE1
S11313A0672F782F892F902DF4CF059497958795E3
S11313B07795679557954795379527950A95AAF791
S11313C00F910895A29FB001B39FC001A39F700D18
S11313D0811D1124911DB29F700D811D1124911D39
S11313E008950E94E209460F571FC81FD91F08F429
S10B13F031960895F894FFCF33
S11313F80405060703020100280F0A016B01000116
S1131408020341040506420708094323002A44004D
S11314180A1F1F0E040000040E1515040400000E14
S11314281F1F1F000E000000040E1F0E04000004FE
S11314380E1F1B11000000111B0E040E1B11001FB0
S113144815151F15151F000E1D191F0E001F00531B
S113145865742048656174696E672054696D650018
S113146852656D61696E696E672054696D650043E4
S11314786C6F736520446F6F720050757420466FEB
S11314886F6420466972737400436C6F7365446FAC
S11314986F72507574466F6F6400202020202020DE
S10F14A8202020202020202020200000F4
S9030000FC
